:020000040800F2
:10000000200400209D0100080F0C0008E50A0008EC
:100010000D0C0008A9020008B90C0008000000003F
:10002000000000000000000000000000130C0008A9
:10003000AB02000800000000110C0008150C0008BD
:10004000B7010008B7010008B7010008B7010008B0
:10005000B7010008B7010008B7010008B7010008A0
:10006000B7010008B7010008B7010008B701000890
:10007000B7010008B7010008B7010008B701000880
:10008000B7010008B7010008B7010008B701000870
:10009000B7010008B7010008B7010008B701000860
:1000A000B7010008B7010008B7010008B701000850
:1000B000B7010008B7010008B7010008B701000840
:1000C000B7010008B7010008B7010008B701000830
:1000D000B7010008B7010008B7010008B701000820
:1000E000B7010008B7010008B7010008B701000810
:1000F000B7010008B7010008B7010008B701000800
:10010000B7010008B7010008B7010008B7010008EF
:10011000B7010008B7010008B7010008B7010008DF
:10012000B7010008B7010008B7010008B7010008CF
:10013000B7010008B7010008B7010008B7010008BF
:10014000B7010008B7010008B7010008B7010008AF
:10015000B7010008B7010008B7010008B70100089F
:10016000B7010008B7010008B7010008B70100088F
:10017000B7010008B7010008B7010008000000003F
:10018000B7010008B7010008DFF80CD000F07AF8DA
:10019000004800475510000820040020064880470A
:1001A00006480047FEE7FEE7FEE7FEE7FEE7FEE75C
:1001B000FEE7FEE7FEE7FEE79D0C00088901000868
:1001C0002DE9F05F0546002092469B46884606468C
:1001D000814640241BE0284641464746224600F01F
:1001E00041F853465A46C01A914110D31146184659
:1001F000224600F028F82D1A67EB01084F462246E8
:100200000120002100F01FF817EB00094E41201ECD
:10021000A4F10104DFDC484631462A464346BDE8E6
:10022000F09FD2B201E000F8012B491EFBD27047CB
:100230000022F6E710B513460A4604461946FFF7B2
:10024000F0FF204610BD202A04DB203A00FA02F11C
:10025000002070479140C2F1200320FA03F31943B4
:1002600090407047202A04DB203A21FA02F0002156
:10027000704721FA02F3D040C2F1200291400843B6
:1002800019467047064C074D06E0E06840F0010350
:1002900094E8070098471034AC42F6D3FFF778FF94
:1002A000C0120008E0120008FEE7704770B504466F
:1002B00000F0F4F80546601C02D0044800780444BD
:1002C00000F0ECF8401BA042FAD370BD0C000020F7
:1002D0002DE9F84F00224FF0010803254FF00F0ED3
:1002E0000B6808FA02F42340A3426ED14E68012E37
:1002F00005D0022E03D0112E01D0122E12D1866805
:100300004FEA420C05FA0CF7BE43CF6807FA0CF728
:10031000374387604668A6430C79C4F300149440C1
:1003200034434460C668570005FA07FC8C6826EA27
:100330000C06BC403443C4604C68022C01D0122C23
:1003400013D1D40800EB8404A346D4F820905407BA
:100350004FEAD46A0EFA0AF629EA06090E6906FA85
:100360000AF646EA0906CBF8206006680C7926EA08
:100370000C0604F00304BC40344304604C68E40001
:1003800065D5364C266846F480462660246822F0FF
:10039000030604F480440094314C3444A446D4F859
:1003A00008489607370F0EFA07F6B4432D4EB042B1
:1003B00001D1002624E02C4EB04201D101261FE0DD
:1003C0002A4EB04202D102261AE040E0284EB04246
:1003D00001D1032614E0274EB04201D104260FE0DC
:1003E000254EB04201D105260AE0244EB04201D18B
:1003F000062605E0224EB04201D1072600E008267D
:10040000BE402643CCF808681E4E34684F689C43B3
:10041000FF0300D51C4334601A4C241D26684F6826
:100420009E43BF0300D51E432660164E083634682F
:100430004F689C43FF0200D51C433460114E0C36BC
:1004400034684F689C43BF0200D51C433460521C83
:10045000102AFFF445AFBDE8F88F00004438024091
:100460000030014000000240000402400008024049
:10047000000C02400010024000140240001802402C
:10048000001C0240003C01400069084000D00120EF
:1004900070470AB1816170470904FBE70148806831
:1004A000704700000C0000200148007870470000F1
:1004B0000C00002002488168027811448160704776
:1004C0000C0000200B4810B5016841F40071016078
:1004D000016841F480610160016841F4807101604C
:1004E000032000F061F8002000F006F800F024F886
:1004F000002010BD003C024070B50D4D04464FF485
:100500007A712878B1FBF0F00A490968B1FBF0F084
:1005100000F0D4FA48B9102C07D200222146501E10
:1005200000F022F800206C6070BD012070BD00005A
:100530000C000020180000200A4808B5016841F4AA
:1005400080410160006800F4804000900548001F71
:10055000016841F080510160006800F08050009017
:1005600008BD000044380240F0B40E4B1B680C4636
:10057000C3F30223C3F10705042D00D90425191D77
:10058000072901D2002300E0DB1E012606FA05F14F
:10059000491E214099409E40761E16403143F0BCD2
:1005A00000F08BBB0CED00E0064900F00702086884
:1005B0004FF6FF03184040EA0220034A1043086048
:1005C000704700000CED00E00000FA052DE9F0474F
:1005D0000E46050065D0DFF81481D8F80000F7B2A8
:1005E00000F00F00B04207D288F80070D8F8000081
:1005F00000F00F00B04254D128683D4C810712D55D
:10060000400703D5206840F4E050206028780007B8
:1006100003D5206840F4604020602068A96820F07D
:10062000F000084320602878C0072DD03049686862
:100630000839012812D0022813D0032811D00968E4
:10064000890700292DDA216821F003010143216087
:10065000FFF724FF814641F2883A0EE009688903DA
:10066000EFE709688901ECE7FFF718FFA0EB090144
:10067000514502D90320BDE8F0872068696800F081
:100680000C00B0EB810FEFD1D8F80010404601F01C
:100690000F01B14207D90770006800F00F00B042A7
:1006A00001D00120E7E72878400705D52068E968F0
:1006B00020F4E050084320602878000706D5206821
:1006C000296920F4604040EAC100206000F018F879
:1006D0002168084AC1F30311515CC840064908600B
:1006E00006480068FFF708FF0020C4E7003C02400E
:1006F00008380240B0120008180000201000002046
:10070000154810B5006810F00C02144813D04110C1
:10071000042A0FD0082A0ED10F4C241F2268236808
:1007200002F03F025B0207D52068C0F38810A0FBEF
:10073000010106E0084610BD2168C1F38811A1FB44
:1007400000010023FFF73CFD2168C1F30141491C72
:100750004900B0FBF1F010BD083802400024F4005D
:100760002DE9F84F040076D02078DFF838A3CE4D7D
:10077000C00749D0DAF800105046C1F381010129C1
:1007800008D00068C0F3810002280AD1281D006843
:10079000400206D52868800336D560680028E2D07C
:1007A00032E06068B0F5803F10D0B0F5A02F286827
:1007B00010D020F480302860286820F48020286041
:1007C0006068A0B1FFF76AFE06460CE0286840F4B6
:1007D0008030F4E740F480202860F7E7FFF75EFE02
:1007E000801B642873D828688003F7D50CE0FFF7D6
:1007F00055FE064605E000BFFFF750FE801B64284B
:10080000F0D828688003F7D42078DFF8A08280072A
:100810004FF000093ED5DAF80010504611F00C0FE9
:1008200009D00068C0F3810002280BD19D48001F49
:100830000068400206D42868800715D5E0680128C2
:1008400009D111E0E068B8B10120C8F80000FFF755
:1008500025FE064605E020E1FFF720FE801B02286A
:10086000C0D828688007F7D52868216920F0F800EB
:1008700040EAC10028600DE0C8F80090FFF70EFEC6
:10088000064604E0FFF70AFE801B02281FD82868EE
:100890008007F7D42078000722D5824E844861690A
:1008A0006C3671B101210160FFF7F8FD074604E0E5
:1008B000FFF7F4FDC01B022809D830688007F7D580
:1008C0000EE0C0F80090FFF7E9FD074605E082E082
:1008D000FFF7E4FDC01B02287DD830688007F7D4FD
:1008E0002078400768D5DFF8BCB100270BF1380B42
:1008F000DBF80000C0000BD4DBF8001041F08051A1
:10090000CBF80010DBF80000012700F080500090C9
:10091000684E3068C00510D4306840F48070306094
:10092000FFF7BCFD009005E0FFF7B8FD0099401A05
:10093000022850D83068C005F6D55A4EA0686836EF
:1009400001280FD00528306810D020F00100306059
:10095000306820F004003060A068B8B1FFF79EFD59
:1009600000900FE0306840F00100F4E740F0040030
:100970003060F7E7FFF792FD0099411A41F28830A5
:10098000814266D830688007F4D50EE0FFF786FD17
:10099000009007E0FFF782FD0099411A41F288308C
:1009A000814256D830688007F4D42FB1DBF80010AC
:1009B00021F08051CBF80010A069D0B3DAF8002004
:1009C0005146C2F38102022A4AD00228484607D083
:1009D000C8F8600000E03CE0FFF760FD04463BE043
:1009E0004746C8F86000FFF759FD064605E000BF1E
:1009F000FFF754FD801B02282BD828688001F7D40C
:100A0000D4E907010843A16A2B4A490802EB0141D6
:100A1000626A41EA8211084394F82C1040EA0161AD
:100A20002048001F016001203866FFF737FD0446AB
:100A300005E034E0FFF732FD001B022809D82868E2
:100A40008001F7D52BE000BFFFF728FD001B02282F
:100A500002D90320BDE8F88F28688001F4D41EE095
:100A60000128F7D00868E26900F48001914214D1AE
:100A7000226A00F03F0191420FD147F6C071626ACD
:100A80000140914209D1A26A00F44031914204D15F
:100A9000E16A00F07060884201D00120DAE70020AE
:100AA000D8E7000008380240003802400000474202
:100AB000800E4742007000400000FFFF10B5401E4E
:100AC000B0F1807F01D3012010BD4FF0E0246061C0
:100AD0000F21601700F0F1F80020A06107202061CD
:100AE000002010BDFEE700002DE9F04F87B0142173
:100AF0006846FFF79DFB40480024016841F08001F3
:100B00000160016801F080010591016841F0040174
:100B10000160016801F004010591016841F01001D4
:100B20000160016801F010010591016841F00201C6
:100B30000160016801F002010591016841F00801BE
:100B400001600068DFF8B49000F008000590002212
:100B5000F3214846FFF79DFCDFF8A4A04FF42046A0
:100B6000002231465046FFF794FC4FF421570022F3
:100B700039462448FFF78DFCDFF88CB04FF47048FD
:100B8000002241465846FFF784FCF32000900125DF
:100B9000CDE90154694648460394FFF799FB4FF4A9
:100BA00028608DE8310069465046FFF791FB0096BA
:100BB000CDE90154694650460394FFF789FB00973D
:100BC000CDE9015469460F480394FFF781FBCDF846
:100BD0000080CDE90154694658460394FFF778FB3D
:100BE0008020CDE90004694606480294FFF770FBB7
:100BF00007B0BDE8F08F0000303802400008024026
:100C00000010024000040240000C0240FEE7704762
:100C100070477047FFF74EBC30B593B0302168463F
:100C2000FFF706FB14210CA8FFF702FB194800256B
:100C3000016841F080510160006800F0805011901F
:100C40001548016841F4804101600068022400F405
:100C50008040119001200090000401908001CDE9B6
:100C6000064008AA0420A82182E813000B906846D9
:100C7000FFF776FD0CA90F2081E831004FF4A0505A
:100C80000F90E002109005210CA8FFF79FFC13B015
:100C900030BD000040380240007000400548016847
:100CA00041F47001016003494FF000608039086031
:100CB0007047000088ED00E0FEE70907090E0028F4
:100CC00004DB00F1E02080F80014704700F00F0012
:100CD00000F1E02080F8141D704702E008C8121FE0
:100CE00008C1002AFAD170477047002001E001C115
:100CF000121F002AFBD170474001401EFDD27047F1
:100D00002DE9F05FDFF808924FF4005B072701221E
:100D10005D4659464C464846FFF7BBFB0122D602CA
:100D200031462046FFF7B5FB7A4C0122D10320461D
:100D3000FFF7AFFB012229462046FFF7AAFB764DBD
:100D40004FF000084FF4007A380713D400225946B8
:100D50004846FFF79EFB31462046FFF795FBE8B378
:100D600051462046FFF790FBC8B380212046FFF78D
:100D70008BFBA8B3780718D4012259464846FFF7E1
:100D800088FB002231464846FFF783FB3146204668
:100D9000FFF77AFBA8B351462046FFF775FB88B3EF
:100DA00080212046FFF770FB68B3B8071DD40122ED
:100DB00031464846FFF76DFB00224FF400412046C4
:100DC000FFF767FB31462046FFF75EFBA8B35146AD
:100DD0002046FFF759FB88B3802102E008E013E0CA
:100DE0001BE02046FFF750FB48B3F80752D06AE0FB
:100DF00031462046FFF748FB0028F9D02878BDE8A7
:100E0000F09F12E01CE024E0564631462046FFF7F2
:100E10003BFB0028F9D06878F1E780212046FFF7F6
:100E200033FB0028F9D0A878E9E731462046FFF7E0
:100E30002BFB0028F9D0E878E1E712E019E021E087
:100E4000564631462046FFF71FFB0028F9D0287987
:100E5000D5E780212046FFF717FB0028F9D06879F5
:100E6000CDE731462046FFF70FFB0028F9D0A879DF
:100E7000C5E7564631462046FFF706FB0028F9D065
:100E8000E879BCE780212046FFF7FEFA0028F9D078
:100E9000287AB4E70122D1032046FFF7FAFA0022AC
:100EA00059462046FFF7F5FA31462046FFF7ECFA9F
:100EB000A8B151462046FFF7E7FAC0B1802120468D
:100EC000FFF7E2FAE0B1781040EAC70000F00F0740
:100ED00008F1010080460428FFF636AF8FE731465F
:100EE0002046FFF7D1FA0028F9D0687A87E75646FE
:100EF00031462046FFF7C8FA0028F9D0A87A7EE7E5
:100F000080212046FFF7C0FA0028F9D0E87A76E77A
:100F100000040240001002400000002010B5012132
:100F2000002000F03BF8BDE810400220FFF7BEB9FA
:100F30000146012000F032B800EB81108030C1B2D0
:100F4000002000F02BB810B53321002000F026F867
:100F50003221002000F022F82821002000F01EF8A5
:100F60000C21002000F01AF80621002000F016F8ED
:100F70000121002000F012F8BDE810400220FFF728
:100F800095B9000010B5044603E000BFFFF7D0FF9D
:100F9000641C20780028F9D110BD000070B5164DF2
:100FA0000C4608B1012200E0002201212846FFF78B
:100FB00070FA204600F022F8012202212846FFF7AD
:100FC00068FA6420FFF798FE002202212846FFF706
:100FD00060FA2007000E00F011F8012202212846D5
:100FE000FFF757FA6420FFF787FE2846BDE87040F8
:100FF00000220221FFF74DBA0008024070B50446F6
:10100000134DC00601D5012200E000221021284620
:10101000FFF73FFAA00601D5012200E000222021BF
:101020002846FFF736FA600601D5012200E00022CB
:1010300040212846FFF72DFA200601D5012200E0C5
:1010400000222846BDE870408021FFF722BA000048
:1010500000080240664FFFF735FAFFF7DDFDFFF7A6
:1010600043FDFFF770FFFFF74BFEFFF71DFA01246A
:10107000604E00254FF4804880213046FFF704FA87
:1010800001287DD1012241463846FFF702FAFFF7D9
:1010900045FF00210846FFF74FFF57A0FFF772FFFB
:1010A00001210020FFF748FF57A0FFF76BFF00BFAB
:1010B000FFF726FE2A28FBD1FFF730FF0021084664
:1010C000FFF73AFF54A0FFF75DFF01210020FFF773
:1010D00033FF56A0FFF756FFFFF712FE312805D069
:1010E0002946322804D033280ED003E0214601E0FF
:1010F00045F0010100221143EED0312806D03228FC
:101100001CD033285CD031E00122F4E7FFF706FF62
:1011100000210846FFF710FF47A0FFF733FF01212A
:101120000020FFF709FF48A0FFF72CFF0122402114
:101130003046FFF7AEF94EF6602015E0FFF7EEFE01
:1011400000210846FFF7F8FE3BA0FFF71BFF012137
:101150000020FFF7F1FE41A0FFF714FF012240211C
:101160003046FFF796F94248FFF7A0F800224021E9
:101170003046FFF78EF9FFF7D1FE0022414600E02E
:1011800002E03846FFF785F980213046FFF77CF909
:1011900000287FF471AFFFF7C1FE00210846FFF77A
:1011A000CBFE34A0FFF7EEFE01210020FFF7C4FEC6
:1011B00034A0FFF7E7FE41F28830FFF777F85BE7EE
:1011C000FFF7ACFE00210846FFF7B6FE1AA0FFF7B6
:1011D000D9FE01210020FFF7AFFE2FA0FFF7D2FEBE
:1011E000012240213046FFF754F93048BCE70000A7
:1011F000000C024000040240414C4552542C204453
:10120000525920534F494C00454E41424C453A20DB
:101210005052455353202A0043686F6F7365205422
:10122000696D652046726F6D000000007B312C32C5
:101230002C337D4D696E3A004D6F6973747572651C
:101240003A204472790000004F70656E2054696D39
:10125000653A2031204D696E000000004F70656EC8
:101260002054696D653A2032204D696E00000000FF
:10127000C0D401004D6F6973747572653A2057458B
:10128000540000004F70656E2054696D653A204E21
:101290004F4E4521200000004F70656E2054696D4F
:1012A000653A2033204D696E0000000020BF020027
:1012B0000000000000000000010203040607080906
:1012C000E0120008000000201C000000DA0C0008FA
:1012D000FC1200081C00002004040000EA0C0008B6
:1012E0003132333435363738392A302301000000A3
:0C12F00010000000000000000024F400CA
:040000050800018965
:00000001FF
